:020000040000fa
:020000040040ba
:10000000f0ff452089014000f7064000f906400056
:10001000fd064000ff064000010740000000000010
:10002000000000000000000000000000f506400095
:10003000fb06400000000000f5064000f506400009
:10004000f5064000f5064000f5064000f5064000c4
:10005000f5064000f5064000f5064000f5064000b4
:10006000f506400000000000f5064000f5064000df
:10007000f5064000f5064000f5064000f506400094
:10008000f5064000f5064000f5064000f506400084
:10009000f5064000f5064000f50640008d064000dc
:1000a000f5064000f5064000f5064000f506400064
:1000b000f5064000f5064000f5064000f506400054
:1000c000f5064000f5064000f5064000f506400044
:1000d000f5064000f5064000f5064000f506400034
:1000e000f5064000f5064000f5064000f506400024
:1000f000f5064000f5064000f5064000f506400014
:10010000f5064000f5064000f5064000f506400003
:10011000f5064000f5064000000000000000000069
:10012000f5064000f5064000f5064000f5064000e3
:10013000f5064000f5064000f5064000f5064000d3
:10014000f5064000f5064000f5064000f5064000c3
:10015000f5064000f5064000f5064000f5064000b3
:08016000f5064000f506400021
:020000040000fa
:020000040040ba
:10016800f8b500bff8bc08bc9e467047f1054000d2
:10017800f8b500bff8bc08bc9e467047cd054000e6
:020000040000fa
:020000040040ba
:1001880008b5514b03b19847504b03b19847eff36b
:10019800108172b64e4ad2f8883043f47003c2f820
:1001a8008830bff34f8fbff36f8f01b962b6494be9
:1001b800494a5a609a6812f0010ffbd0454bdb6838
:1001c80013f4c07f13d0454b0c221a60414b444aac
:1001d8005a609a6812f0010ffbd03e4b414a5a60b0
:1001e8009a6812f0010ffbd03f4b404a1a60bff3e8
:1001f8004f8fbff36f8f364cd4f8903223f0010342
:10020800c4f89032d4f8943223f00103c4f894323d
:10021800bff34f8fbff36f8f00f0c6f8344b23f056
:100228007f03a360334b9847636913f4003f12d1ef
:10023800bff34f8fbff36f8f0022c4f85022bff374
:100248004f8fbff36f8f626942f400326261bff370
:100258004f8fbff36f8f1e4b5b6913f4803f29d11b
:100268001b4b0022c3f88420bff34f8fd3f8803094
:10027800c3f3c906c3f34e335a0143f6e075144875
:1002880002ea0504334644ea8371c0f86012013b70
:10029800b3f1ff3ff7d1203a12f1200ff0d1bff3ad
:1002a8004f8f0b4a536943f480335361bff34f8f29
:1002b800bff36f8f104b03b19847104b03b19847aa
:1002c80000f0f2f9fee700bf0000000000000000a7
:1002d80000ed00e0000c0e400d00005a74004020b4
:1002e8000c08005a0c07005a00180e40010000a51f
:1002f8000000400019054000000000000000000058
:020000040000fa
:020000040040ba
:100308000022274bc3f8142126494ff0ff330b6016
:100318004b650b66c1f89030c1f8a0304ff400006f
:1003280008616ff4000048618a63c1f8182101f57b
:1003380000710b604b650b66c1f89030c1f8a030b6
:100348000a614b618a63c1f8182101f500710b60dd
:100358004b650b66c1f89030c1f8a0300a614b615b
:100368008a63c1f8182101f500710b604b650b66b3
:10037800c1f89030c1f8a0300a614b618a63c1f8b6
:10038800182101f500710b604b650b66c1f89030c0
:10039800c1f8a0300a614b618a63c1f8182170471f
:0803a80000800840000e0e4029
:020000040000fa
:020000040040ba
:1003b0001e4b1f4a9342f0b438bf002103d203f80a
:1003c000011b9342fbd11b4ad2e9000150ea010311
:1003d0004ff0000610d09468034602f10c076cb988
:1003e00021b1014403f8016b9942fbd13a46d2e9ad
:1003f000000150ea0103eed1f0bc704759b101f1a0
:100400000c030c38801a1a443b461c1813f8015b85
:1004100025709342f9d111f0030318bf012303ebb8
:10042000910107eb81073a46e1e700bf0000402059
:0804300000004020b804400068
:020000040000fa
:020000040040ba
:100438001c4b1d4a9a629a6e12f0020ffbd0194aa1
:10044800136b23f07003136313469a6e12f0080fb0
:10045800fbd0144a136b23f4407343f48073136383
:1004680013469a6e12f0080ffbd00e4a136b23f056
:10047800030343f00203136313469a6e12f0080f46
:10048800fbd0084b4ff480425a6040f6e171996501
:100498001a609a6e12f4804ffbd0024b034a1a611d
:1004a800704700bf00060e40013f1820001c830063
:020000040000fa
:020000040040ba
:1004b800500040201c000000000000006c0040209c
:1004c8000800000000000000740040200400000044
:1004d8000000000078004020040000000000000038
:1004e8007c004020040000000000000000004020c4
:1004f80050000000000000008000402004000000c0
:10050800000000000000000000000000222222225b
:020000040000fa
:020000040040ba
:100518000e4a38b5002313600d4a0e4c13600e4a7c
:100528000e4d13600e4a13600e4a13600e4a536252
:1005380013610123936000f0e0f800f0def8ac42ac
:1005480000d338bd54f8043b9847f8e780004020b2
:100558000c00402074014000080040207801400051
:0c05680000004020040040201000402053
:020000040000fa
:020000040040ba
:100574000f4a936b83f4000393630e4a13680133a9
:100584001360022b00d87047134600221a600a4bee
:100594000a4a5a60bff34f8f0949ca6802f4e062fd
:1005a400084b1343cb60bff34f8f00bffde700bf81
:1005b400000e0e4078004020000c0e400c01005a42
:0805c40000ed00e00400fa055f
:020000040000fa
:020000040040ba
:1005cc0010b5054c237833b9044b13b10448aff381
:1005dc0000800123237010bd50004020000000005b
:1005ec000000000008b5034b1bb103490348aff3ef
:1005fc00008008bd000000005400402000000000f6
:020000040000fa
:020000040040ba
:10060c000949ca6822f4e0621204120c074b134326
:10061c00cb60bff35f8f62b6054be02283f81723e4
:10062c004ff400021a60704700ed00e00004fa0578
:04063c0000e100e0f9
:020000040000fa
:020000040040ba
:1006400008b500f043f8fff7f7fefff75dfe4ff443
:100650000043044a5360b03a536000f005f8fff7d6
:08066000d5ff08bd00190e4092
:020000040000fa
:020000040040ba
:10066800064b4ff440425a604bf2d272da611022c4
:100678005a62034b00221a60704700bf00c0004056
:040688006c004020a2
:020000040000fa
:020000040040ba
:10068c0008b5064b186a10f0140005d0044b1b6813
:10069c0013b1034a5168984708bd00bf00c0004021
:0406ac006c0040207e
:020000040000fa
:020000040040ba
:1006b00008b50020fff7c4ff0021034800f014f83c
:0c06c00000f00cf8fee700bf75054000dc
:020000040000fa
:020000040040ba
:1006cc00014b024a1a607047000c0e4000060004f1
:020000040000fa
:020000040040ba
:0c06dc00014b05221a60704700c000406e
:020000040000fa
:020000040040ba
:0c06e800014b1860596070476c00402006
:020000040000fa
:020000040040ba
:0206f400fee71f
:020000040000fa
:020000040040ba
:0206f600fee71d
:020000040000fa
:020000040040ba
:0206f800fee71b
:020000040000fa
:020000040040ba
:0206fa00fee719
:020000040000fa
:020000040040ba
:0206fc00fee717
:020000040000fa
:020000040040ba
:0206fe00fee715
:020000040000fa
:020000040040ba
:02070000fee712
:020000040000fa
:020000040040ba
:0207020070473e
:020000040000fa
:02000004d0002a
:0400000002000000fa
:00000001FF
